{
  "contractName": "Punks",
  "abi": [
    {
      "inputs": [
        {
          "internalType": "address payable",
          "name": "_developer",
          "type": "address"
        },
        {
          "internalType": "string",
          "name": "_imageHash",
          "type": "string"
        }
      ],
      "stateMutability": "nonpayable",
      "type": "constructor"
    },
    {
      "anonymous": false,
      "inputs": [
        {
          "indexed": true,
          "internalType": "address",
          "name": "owner",
          "type": "address"
        },
        {
          "indexed": true,
          "internalType": "address",
          "name": "approved",
          "type": "address"
        },
        {
          "indexed": true,
          "internalType": "uint256",
          "name": "tokenId",
          "type": "uint256"
        }
      ],
      "name": "Approval",
      "type": "event"
    },
    {
      "anonymous": false,
      "inputs": [
        {
          "indexed": true,
          "internalType": "address",
          "name": "owner",
          "type": "address"
        },
        {
          "indexed": true,
          "internalType": "address",
          "name": "operator",
          "type": "address"
        },
        {
          "indexed": false,
          "internalType": "bool",
          "name": "approved",
          "type": "bool"
        }
      ],
      "name": "ApprovalForAll",
      "type": "event"
    },
    {
      "anonymous": false,
      "inputs": [
        {
          "indexed": true,
          "internalType": "uint256",
          "name": "index",
          "type": "uint256"
        },
        {
          "indexed": true,
          "internalType": "address",
          "name": "minter",
          "type": "address"
        }
      ],
      "name": "Mint",
      "type": "event"
    },
    {
      "anonymous": false,
      "inputs": [
        {
          "indexed": true,
          "internalType": "uint256",
          "name": "punkIndex",
          "type": "uint256"
        },
        {
          "indexed": false,
          "internalType": "uint256",
          "name": "value",
          "type": "uint256"
        },
        {
          "indexed": true,
          "internalType": "address",
          "name": "fromAddress",
          "type": "address"
        }
      ],
      "name": "PunkBidEntered",
      "type": "event"
    },
    {
      "anonymous": false,
      "inputs": [
        {
          "indexed": true,
          "internalType": "uint256",
          "name": "punkIndex",
          "type": "uint256"
        },
        {
          "indexed": false,
          "internalType": "uint256",
          "name": "value",
          "type": "uint256"
        },
        {
          "indexed": true,
          "internalType": "address",
          "name": "fromAddress",
          "type": "address"
        }
      ],
      "name": "PunkBidWithdrawn",
      "type": "event"
    },
    {
      "anonymous": false,
      "inputs": [
        {
          "indexed": true,
          "internalType": "uint256",
          "name": "punkIndex",
          "type": "uint256"
        },
        {
          "indexed": false,
          "internalType": "uint256",
          "name": "value",
          "type": "uint256"
        },
        {
          "indexed": true,
          "internalType": "address",
          "name": "fromAddress",
          "type": "address"
        },
        {
          "indexed": true,
          "internalType": "address",
          "name": "toAddress",
          "type": "address"
        }
      ],
      "name": "PunkBought",
      "type": "event"
    },
    {
      "anonymous": false,
      "inputs": [
        {
          "indexed": true,
          "internalType": "uint256",
          "name": "punkIndex",
          "type": "uint256"
        }
      ],
      "name": "PunkNoLongerForSale",
      "type": "event"
    },
    {
      "anonymous": false,
      "inputs": [
        {
          "indexed": true,
          "internalType": "uint256",
          "name": "punkIndex",
          "type": "uint256"
        },
        {
          "indexed": false,
          "internalType": "uint256",
          "name": "minValue",
          "type": "uint256"
        },
        {
          "indexed": true,
          "internalType": "address",
          "name": "toAddress",
          "type": "address"
        }
      ],
      "name": "PunkOffered",
      "type": "event"
    },
    {
      "anonymous": false,
      "inputs": [],
      "name": "SaleBegins",
      "type": "event"
    },
    {
      "anonymous": false,
      "inputs": [
        {
          "indexed": true,
          "internalType": "address",
          "name": "from",
          "type": "address"
        },
        {
          "indexed": true,
          "internalType": "address",
          "name": "to",
          "type": "address"
        },
        {
          "indexed": true,
          "internalType": "uint256",
          "name": "tokenId",
          "type": "uint256"
        }
      ],
      "name": "Transfer",
      "type": "event"
    },
    {
      "inputs": [],
      "name": "TOKEN_LIMIT",
      "outputs": [
        {
          "internalType": "uint256",
          "name": "",
          "type": "uint256"
        }
      ],
      "stateMutability": "view",
      "type": "function",
      "constant": true
    },
    {
      "inputs": [
        {
          "internalType": "bytes32",
          "name": "",
          "type": "bytes32"
        }
      ],
      "name": "cancelledOffers",
      "outputs": [
        {
          "internalType": "bool",
          "name": "",
          "type": "bool"
        }
      ],
      "stateMutability": "view",
      "type": "function",
      "constant": true
    },
    {
      "inputs": [],
      "name": "contractSealed",
      "outputs": [
        {
          "internalType": "bool",
          "name": "",
          "type": "bool"
        }
      ],
      "stateMutability": "view",
      "type": "function",
      "constant": true
    },
    {
      "inputs": [],
      "name": "imageHash",
      "outputs": [
        {
          "internalType": "string",
          "name": "",
          "type": "string"
        }
      ],
      "stateMutability": "view",
      "type": "function",
      "constant": true
    },
    {
      "inputs": [],
      "name": "marketPaused",
      "outputs": [
        {
          "internalType": "bool",
          "name": "",
          "type": "bool"
        }
      ],
      "stateMutability": "view",
      "type": "function",
      "constant": true
    },
    {
      "inputs": [
        {
          "internalType": "address",
          "name": "",
          "type": "address"
        }
      ],
      "name": "pendingWithdrawals",
      "outputs": [
        {
          "internalType": "uint256",
          "name": "",
          "type": "uint256"
        }
      ],
      "stateMutability": "view",
      "type": "function",
      "constant": true
    },
    {
      "inputs": [],
      "name": "publicSale",
      "outputs": [
        {
          "internalType": "bool",
          "name": "",
          "type": "bool"
        }
      ],
      "stateMutability": "view",
      "type": "function",
      "constant": true
    },
    {
      "inputs": [
        {
          "internalType": "uint256",
          "name": "",
          "type": "uint256"
        }
      ],
      "name": "punkBids",
      "outputs": [
        {
          "internalType": "bool",
          "name": "hasBid",
          "type": "bool"
        },
        {
          "internalType": "uint256",
          "name": "punkIndex",
          "type": "uint256"
        },
        {
          "internalType": "address",
          "name": "bidder",
          "type": "address"
        },
        {
          "internalType": "uint256",
          "name": "value",
          "type": "uint256"
        }
      ],
      "stateMutability": "view",
      "type": "function",
      "constant": true
    },
    {
      "inputs": [
        {
          "internalType": "uint256",
          "name": "",
          "type": "uint256"
        }
      ],
      "name": "punksOfferedForSale",
      "outputs": [
        {
          "internalType": "bool",
          "name": "isForSale",
          "type": "bool"
        },
        {
          "internalType": "uint256",
          "name": "punkIndex",
          "type": "uint256"
        },
        {
          "internalType": "address",
          "name": "seller",
          "type": "address"
        },
        {
          "internalType": "uint256",
          "name": "minValue",
          "type": "uint256"
        },
        {
          "internalType": "address",
          "name": "onlySellTo",
          "type": "address"
        }
      ],
      "stateMutability": "view",
      "type": "function",
      "constant": true
    },
    {
      "inputs": [],
      "name": "saleStartTime",
      "outputs": [
        {
          "internalType": "uint256",
          "name": "",
          "type": "uint256"
        }
      ],
      "stateMutability": "view",
      "type": "function",
      "constant": true
    },
    {
      "inputs": [
        {
          "internalType": "address",
          "name": "",
          "type": "address"
        }
      ],
      "name": "xDaiBalance",
      "outputs": [
        {
          "internalType": "uint256",
          "name": "",
          "type": "uint256"
        }
      ],
      "stateMutability": "view",
      "type": "function",
      "constant": true
    },
    {
      "inputs": [],
      "name": "startSale",
      "outputs": [],
      "stateMutability": "nonpayable",
      "type": "function"
    },
    {
      "inputs": [
        {
          "internalType": "bool",
          "name": "_paused",
          "type": "bool"
        }
      ],
      "name": "pauseMarket",
      "outputs": [],
      "stateMutability": "nonpayable",
      "type": "function"
    },
    {
      "inputs": [],
      "name": "sealContract",
      "outputs": [],
      "stateMutability": "nonpayable",
      "type": "function"
    },
    {
      "inputs": [
        {
          "internalType": "bytes4",
          "name": "_interfaceID",
          "type": "bytes4"
        }
      ],
      "name": "supportsInterface",
      "outputs": [
        {
          "internalType": "bool",
          "name": "",
          "type": "bool"
        }
      ],
      "stateMutability": "view",
      "type": "function",
      "constant": true
    },
    {
      "inputs": [
        {
          "internalType": "address",
          "name": "_from",
          "type": "address"
        },
        {
          "internalType": "address",
          "name": "_to",
          "type": "address"
        },
        {
          "internalType": "uint256",
          "name": "_tokenId",
          "type": "uint256"
        }
      ],
      "name": "safeTransferFrom",
      "outputs": [],
      "stateMutability": "nonpayable",
      "type": "function"
    },
    {
      "inputs": [
        {
          "internalType": "address",
          "name": "_from",
          "type": "address"
        },
        {
          "internalType": "address",
          "name": "_to",
          "type": "address"
        },
        {
          "internalType": "uint256",
          "name": "_tokenId",
          "type": "uint256"
        },
        {
          "internalType": "bytes",
          "name": "_data",
          "type": "bytes"
        }
      ],
      "name": "safeTransferFrom",
      "outputs": [],
      "stateMutability": "nonpayable",
      "type": "function"
    },
    {
      "inputs": [
        {
          "internalType": "address",
          "name": "_from",
          "type": "address"
        },
        {
          "internalType": "address",
          "name": "_to",
          "type": "address"
        },
        {
          "internalType": "uint256",
          "name": "_tokenId",
          "type": "uint256"
        }
      ],
      "name": "transferFrom",
      "outputs": [],
      "stateMutability": "nonpayable",
      "type": "function"
    },
    {
      "inputs": [
        {
          "internalType": "address",
          "name": "_approved",
          "type": "address"
        },
        {
          "internalType": "uint256",
          "name": "_tokenId",
          "type": "uint256"
        }
      ],
      "name": "approve",
      "outputs": [],
      "stateMutability": "nonpayable",
      "type": "function"
    },
    {
      "inputs": [
        {
          "internalType": "address",
          "name": "_operator",
          "type": "address"
        },
        {
          "internalType": "bool",
          "name": "_approved",
          "type": "bool"
        }
      ],
      "name": "setApprovalForAll",
      "outputs": [],
      "stateMutability": "nonpayable",
      "type": "function"
    },
    {
      "inputs": [
        {
          "internalType": "address",
          "name": "_owner",
          "type": "address"
        }
      ],
      "name": "balanceOf",
      "outputs": [
        {
          "internalType": "uint256",
          "name": "",
          "type": "uint256"
        }
      ],
      "stateMutability": "view",
      "type": "function",
      "constant": true
    },
    {
      "inputs": [
        {
          "internalType": "uint256",
          "name": "_tokenId",
          "type": "uint256"
        }
      ],
      "name": "ownerOf",
      "outputs": [
        {
          "internalType": "address",
          "name": "_owner",
          "type": "address"
        }
      ],
      "stateMutability": "view",
      "type": "function",
      "constant": true
    },
    {
      "inputs": [
        {
          "internalType": "uint256",
          "name": "_tokenId",
          "type": "uint256"
        }
      ],
      "name": "getApproved",
      "outputs": [
        {
          "internalType": "address",
          "name": "",
          "type": "address"
        }
      ],
      "stateMutability": "view",
      "type": "function",
      "constant": true
    },
    {
      "inputs": [
        {
          "internalType": "address",
          "name": "_owner",
          "type": "address"
        },
        {
          "internalType": "address",
          "name": "_operator",
          "type": "address"
        }
      ],
      "name": "isApprovedForAll",
      "outputs": [
        {
          "internalType": "bool",
          "name": "",
          "type": "bool"
        }
      ],
      "stateMutability": "view",
      "type": "function",
      "constant": true
    },
    {
      "inputs": [],
      "name": "mintsRemaining",
      "outputs": [
        {
          "internalType": "uint256",
          "name": "",
          "type": "uint256"
        }
      ],
      "stateMutability": "view",
      "type": "function",
      "constant": true
    },
    {
      "inputs": [
        {
          "internalType": "uint256",
          "name": "numberOfNfts",
          "type": "uint256"
        }
      ],
      "name": "mint",
      "outputs": [],
      "stateMutability": "payable",
      "type": "function",
      "payable": true
    },
    {
      "inputs": [],
      "name": "totalSupply",
      "outputs": [
        {
          "internalType": "uint256",
          "name": "",
          "type": "uint256"
        }
      ],
      "stateMutability": "view",
      "type": "function",
      "constant": true
    },
    {
      "inputs": [
        {
          "internalType": "uint256",
          "name": "index",
          "type": "uint256"
        }
      ],
      "name": "tokenByIndex",
      "outputs": [
        {
          "internalType": "uint256",
          "name": "",
          "type": "uint256"
        }
      ],
      "stateMutability": "pure",
      "type": "function",
      "constant": true
    },
    {
      "inputs": [
        {
          "internalType": "address",
          "name": "_owner",
          "type": "address"
        },
        {
          "internalType": "uint256",
          "name": "_index",
          "type": "uint256"
        }
      ],
      "name": "tokenOfOwnerByIndex",
      "outputs": [
        {
          "internalType": "uint256",
          "name": "",
          "type": "uint256"
        }
      ],
      "stateMutability": "view",
      "type": "function",
      "constant": true
    },
    {
      "inputs": [],
      "name": "name",
      "outputs": [
        {
          "internalType": "string",
          "name": "_name",
          "type": "string"
        }
      ],
      "stateMutability": "view",
      "type": "function",
      "constant": true
    },
    {
      "inputs": [],
      "name": "symbol",
      "outputs": [
        {
          "internalType": "string",
          "name": "_symbol",
          "type": "string"
        }
      ],
      "stateMutability": "view",
      "type": "function",
      "constant": true
    },
    {
      "inputs": [
        {
          "internalType": "uint256",
          "name": "_tokenId",
          "type": "uint256"
        }
      ],
      "name": "tokenURI",
      "outputs": [
        {
          "internalType": "string",
          "name": "",
          "type": "string"
        }
      ],
      "stateMutability": "view",
      "type": "function",
      "constant": true
    },
    {
      "inputs": [
        {
          "internalType": "uint256",
          "name": "punkIndex",
          "type": "uint256"
        }
      ],
      "name": "punkNoLongerForSale",
      "outputs": [],
      "stateMutability": "nonpayable",
      "type": "function"
    },
    {
      "inputs": [
        {
          "internalType": "uint256",
          "name": "punkIndex",
          "type": "uint256"
        },
        {
          "internalType": "uint256",
          "name": "minSalePriceInWei",
          "type": "uint256"
        }
      ],
      "name": "offerPunkForSale",
      "outputs": [],
      "stateMutability": "nonpayable",
      "type": "function"
    },
    {
      "inputs": [
        {
          "internalType": "uint256",
          "name": "punkIndex",
          "type": "uint256"
        },
        {
          "internalType": "uint256",
          "name": "minSalePriceInWei",
          "type": "uint256"
        },
        {
          "internalType": "address",
          "name": "toAddress",
          "type": "address"
        }
      ],
      "name": "offerPunkForSaleToAddress",
      "outputs": [],
      "stateMutability": "nonpayable",
      "type": "function"
    },
    {
      "inputs": [
        {
          "internalType": "uint256",
          "name": "punkIndex",
          "type": "uint256"
        }
      ],
      "name": "buyPunk",
      "outputs": [],
      "stateMutability": "payable",
      "type": "function",
      "payable": true
    },
    {
      "inputs": [],
      "name": "withdraw",
      "outputs": [],
      "stateMutability": "nonpayable",
      "type": "function"
    },
    {
      "inputs": [
        {
          "internalType": "uint256",
          "name": "punkIndex",
          "type": "uint256"
        }
      ],
      "name": "enterBidForPunk",
      "outputs": [],
      "stateMutability": "payable",
      "type": "function",
      "payable": true
    },
    {
      "inputs": [
        {
          "internalType": "uint256",
          "name": "punkIndex",
          "type": "uint256"
        },
        {
          "internalType": "uint256",
          "name": "minPrice",
          "type": "uint256"
        }
      ],
      "name": "acceptBidForPunk",
      "outputs": [],
      "stateMutability": "nonpayable",
      "type": "function"
    },
    {
      "inputs": [
        {
          "internalType": "uint256",
          "name": "punkIndex",
          "type": "uint256"
        }
      ],
      "name": "withdrawBidForPunk",
      "outputs": [],
      "stateMutability": "nonpayable",
      "type": "function"
    }
  ],
  "bytecode": "0x60c060405260096080819052687844616950756e6b7360b81b60a09081526200002c916006919062000286565b50604080518082019091526009808252687844616950756e6b7360b81b60209092019182526200005f9160079162000286565b5060006009819055600a819055600c805460ff60a01b1916905567a688906bd8b00000600d55600f55612723805460ff19169055348015620000a057600080fd5b50604051620038623803806200386283398181016040526040811015620000c657600080fd5b815160208301805160405192949293830192919084640100000000821115620000ee57600080fd5b9083019060208201858111156200010457600080fd5b82516401000000008111828201881017156200011f57600080fd5b82525081516020918201929091019080838360005b838110156200014e57818101518382015260200162000134565b50505050905090810190601f1680156200017c5780820380516001836020036101000a031916815260200191505b506040525050600060208181527f67be87c3ff9960ca1e9cfac5cab2ff4747269cf9ed20c9b7306235ac35a491c58054600160ff1991821681179092557ff7815fccbf112960a73756e185887fedcb9fc64ca0a16cc5923b7960ed78080080548216831790557f77b7bbe0e49b76487c9476b5db3354cf5270619d0037ccb899c2a4c4a75b43188054821683179055635b5e139f60e01b9093527f9562381dfbc2d8b8b66e765249f330164b73e329e5f01670660643571d1974df805490931617909155600b8054336001600160a01b031991821617909155600c80549091166001600160a01b03861617905582516200027d925060089184019062000286565b50505062000332565b828054600181600116156101000203166002900490600052602060002090601f016020900481019282620002be576000855562000309565b82601f10620002d957805160ff191683800117855562000309565b8280016001018555821562000309579182015b8281111562000309578251825591602001919060010190620002ec565b50620003179291506200031b565b5090565b5b808211156200031757600081556001016200031c565b61352080620003426000396000f3fe60806040526004361061023b5760003560e01c80636352211e1161012e578063ae5b770d116100ab578063c44193c31161006f578063c44193c3146108f5578063c87b56dd14610925578063e985e9c51461094f578063f3f437031461098a578063f6eeff1e146109bd5761023b565b8063ae5b770d146107bc578063b6501637146107ef578063b66a0e5d14610804578063b88d4fde14610819578063bf31196f146108b65761023b565b806395d89b41116100f257806395d89b41146106fb578063979bc638146107105780639f7bf7621461073a578063a0712d6814610764578063a22cb465146107815761023b565b80636352211e1461061257806368bd580e1461063c5780636e743fa91461065157806370a08231146106ab5780638264fe98146106de5761023b565b806323b872dd116101bc57806342842e0e1161018057806342842e0e1461054f57806344c66be7146105925780634f6ccce7146105a757806351605d80146105d15780635ec390d8146105e65761023b565b806323b872dd146104945780632f745c59146104d757806333bc1c5c146105105780633a283bd2146105255780633ccfd60b1461053a5761023b565b8063091dbfd211610203578063091dbfd2146103e2578063095ea7b31461040157806318160ddd1461043a5780631cbaee2d1461044f57806323165b75146104645761023b565b806301ffc9a714610240578063031bd4c41461028857806306fdde03146102af578063081812fc14610339578063088f11f31461037f575b600080fd5b34801561024c57600080fd5b506102746004803603602081101561026357600080fd5b50356001600160e01b0319166109e7565b604080519115158252519081900360200190f35b34801561029457600080fd5b5061029d610a0a565b60408051918252519081900360200190f35b3480156102bb57600080fd5b506102c4610a10565b6040805160208082528351818301528351919283929083019185019080838360005b838110156102fe5781810151838201526020016102e6565b50505050905090810190601f16801561032b5780820380516001836020036101000a031916815260200191505b509250505060405180910390f35b34801561034557600080fd5b506103636004803603602081101561035c57600080fd5b5035610aa6565b604080516001600160a01b039092168252519081900360200190f35b34801561038b57600080fd5b506103a9600480360360208110156103a257600080fd5b5035610b1f565b60408051951515865260208601949094526001600160a01b03928316858501526060850191909152166080830152519081900360a00190f35b6103ff600480360360208110156103f857600080fd5b5035610b5e565b005b34801561040d57600080fd5b506103ff6004803603604081101561042457600080fd5b506001600160a01b038135169060200135610e40565b34801561044657600080fd5b5061029d610fb2565b34801561045b57600080fd5b5061029d610fb8565b34801561047057600080fd5b506103ff6004803603604081101561048757600080fd5b5080359060200135610fbe565b3480156104a057600080fd5b506103ff600480360360608110156104b757600080fd5b506001600160a01b038135811691602081013590911690604001356112c7565b3480156104e357600080fd5b5061029d600480360360408110156104fa57600080fd5b506001600160a01b03813516906020013561149d565b34801561051c57600080fd5b506102746114f9565b34801561053157600080fd5b50610274611509565b34801561054657600080fd5b506103ff611513565b34801561055b57600080fd5b506103ff6004803603606081101561057257600080fd5b506001600160a01b03813581169160208101359091169060400135611583565b34801561059e57600080fd5b5061029d6115a3565b3480156105b357600080fd5b5061029d600480360360208110156105ca57600080fd5b50356115c1565b3480156105dd57600080fd5b506102c46115d8565b3480156105f257600080fd5b506103ff6004803603602081101561060957600080fd5b50351515611666565b34801561061e57600080fd5b506103636004803603602081101561063557600080fd5b503561171b565b34801561064857600080fd5b506103ff611758565b34801561065d57600080fd5b5061067b6004803603602081101561067457600080fd5b50356117ba565b60408051941515855260208501939093526001600160a01b03909116838301526060830152519081900360800190f35b3480156106b757600080fd5b5061029d600480360360208110156106ce57600080fd5b50356001600160a01b03166117f2565b6103ff600480360360208110156106f457600080fd5b5035611810565b34801561070757600080fd5b506102c4611c1b565b34801561071c57600080fd5b506103ff6004803603602081101561073357600080fd5b5035611c7c565b34801561074657600080fd5b506102746004803603602081101561075d57600080fd5b5035611ecf565b6103ff6004803603602081101561077a57600080fd5b5035611ee5565b34801561078d57600080fd5b506103ff600480360360408110156107a457600080fd5b506001600160a01b038135169060200135151561211b565b3480156107c857600080fd5b5061029d600480360360208110156107df57600080fd5b50356001600160a01b0316612189565b3480156107fb57600080fd5b5061027461219c565b34801561081057600080fd5b506103ff6121ab565b34801561082557600080fd5b506103ff6004803603608081101561083c57600080fd5b6001600160a01b0382358116926020810135909116916040820135919081019060808101606082013564010000000081111561087757600080fd5b82018360208201111561088957600080fd5b803590602001918460018302840111640100000000831117156108ab57600080fd5b509092509050612254565b3480156108c257600080fd5b506103ff600480360360608110156108d957600080fd5b50803590602081013590604001356001600160a01b031661229d565b34801561090157600080fd5b506103ff6004803603604081101561091857600080fd5b5080359060200135612484565b34801561093157600080fd5b506102c46004803603602081101561094857600080fd5b5035612667565b34801561095b57600080fd5b506102746004803603604081101561097257600080fd5b506001600160a01b0381358116916020013516612765565b34801561099657600080fd5b5061029d600480360360208110156109ad57600080fd5b50356001600160a01b0316612793565b3480156109c957600080fd5b506103ff600480360360208110156109e057600080fd5b50356127a6565b6001600160e01b0319811660009081526020819052604090205460ff165b919050565b61271081565b60068054604080516020601f6002600019610100600188161502019095169490940493840181900481028201810190925282815260609390929091830182828015610a9c5780601f10610a7157610100808354040283529160200191610a9c565b820191906000526020600020905b815481529060010190602001808311610a7f57829003601f168201915b5050505050905090565b60008181526001602052604081205482906001600160a01b0316610b02576040805162461bcd60e51b815260206004820152600e60248201526d24b73b30b634b2103a37b5b2b71760911b604482015290519081900360640190fd5b50506000908152600260205260409020546001600160a01b031690565b612724602052600090815260409020805460018201546002830154600384015460049094015460ff9093169391926001600160a01b0391821692911685565b6127235460ff1615610b6f57600080fd5b612723805460ff191660011790556127205460ff1615610bc6576040805162461bcd60e51b815260206004820152600d60248201526c13585c9ad95d0814185d5cd959609a1b604482015290519081900360640190fd5b6127108110610c13576040805162461bcd60e51b815260206004820152601460248201527370756e6b206e756d6265722069732077726f6e6760601b604482015290519081900360640190fd5b33610c1d8261171b565b6001600160a01b03161415610c79576040805162461bcd60e51b815260206004820152601c60248201527f796f752063616e206e6f7420626964206f6e20796f75722070756e6b00000000604482015290519081900360640190fd5b60003411610cc4576040805162461bcd60e51b81526020600482015260136024820152726269642063616e206e6f74206265207a65726f60681b604482015290519081900360640190fd5b600081815261272560209081526040918290208251608081018452815460ff161515815260018201549281019290925260028101546001600160a01b031692820192909252600390910154606082018190523411610d535760405162461bcd60e51b81526004018080602001828103825260238152602001806134c86023913960400191505060405180910390fd5b606081015115610d855760608101516040808301516001600160a01b0316600090815261272660205220805490910190555b604080516080810182526001808252602080830186815233848601818152346060870181815260008b815261272587528990209751885460ff1916901515178855935195870195909555516002860180546001600160a01b0319166001600160a01b03909216919091179055905160039094019390935583519182529251919285927f5b859394fabae0c1ba88baffe67e751ab5248d2e879028b8c8d6897b0519f56a9281900390910190a35050612723805460ff19169055565b60008181526001602052604090205481906001600160a01b031633811480610e8b57506001600160a01b038116600090815260036020908152604080832033845290915290205460ff165b610ece576040805162461bcd60e51b815260206004820152600f60248201526e21b0b73737ba1037b832b930ba329760891b604482015290519081900360640190fd5b60008381526001602052604090205483906001600160a01b0316610f2a576040805162461bcd60e51b815260206004820152600e60248201526d24b73b30b634b2103a37b5b2b71760911b604482015290519081900360640190fd5b6000848152600160205260409020546001600160a01b03908116908616811415610f5357600080fd5b60008581526002602052604080822080546001600160a01b0319166001600160a01b038a811691821790925591518893918516917f8c5be1e5ebec7d5bd14f71427d1e84f3dd0314c0f7b2291e5b200ac8c7c3b92591a4505050505050565b60095490565b600e5481565b6127235460ff1615610fcf57600080fd5b612723805460ff1916600117905581612710811061102b576040805162461bcd60e51b815260206004820152601460248201527370756e6b206e756d6265722069732077726f6e6760601b604482015290519081900360640190fd5b336110358261171b565b6001600160a01b031614611083576040805162461bcd60e51b815260206004820152601060248201526f24b731b7b93932b1ba1037bbb732b91760811b604482015290519081900360640190fd5b6127205460ff16156110cc576040805162461bcd60e51b815260206004820152600d60248201526c13585c9ad95d0814185d5cd959609a1b604482015290519081900360640190fd5b600083815261272560209081526040918290208251608081018452815460ff161515815260018201549281019290925260028101546001600160a01b03169282019290925260039091015460608201819052339190611169576040805162461bcd60e51b81526020600482015260146024820152731d1a195c99481a5cc81b9bdd08185b9e48189a5960621b604482015290519081900360640190fd5b83816060015110156111c2576040805162461bcd60e51b815260206004820152601b60248201527f626964206973206c6f776572207468616e206d696e2070726963650000000000604482015290519081900360640190fd5b6111cb85612870565b6111ea8282604001518760405180602001604052806000815250612927565b6060818101805160408051608081018252600080825260208083018c81528385018381529784018381528d845261272583528584209451855460ff19169015151785559051600185015596516002840180546001600160a01b0319166001600160a01b0392831617905596516003909301929092558786168082526127268352908390208054850190558287015194518351908152925193959490941693928a927f58e5d5a525e3b40bc15abaa38b5882678db1ee68befd2f60bafe3a7fd06db9e392908290030190a45050612723805460ff1916905550505050565b60008181526001602052604090205481906001600160a01b03163381148061130557506000828152600260205260409020546001600160a01b031633145b8061133357506001600160a01b038116600090815260036020908152604080832033845290915290205460ff165b611377576040805162461bcd60e51b815260206004820152601060248201526f21b0b73737ba103a3930b739b332b91760811b604482015290519081900360640190fd5b60008381526001602052604090205483906001600160a01b03166113d3576040805162461bcd60e51b815260206004820152600e60248201526d24b73b30b634b2103a37b5b2b71760911b604482015290519081900360640190fd5b6000848152600160205260409020546001600160a01b039081169087168114611439576040805162461bcd60e51b81526020600482015260136024820152722bb937b73390333937b69030b2323932b9b99760691b604482015290519081900360640190fd5b6001600160a01b03861661148a576040805162461bcd60e51b815260206004820152601360248201527221b0b73737ba1039b2b732103a3790183c181760691b604482015290519081900360640190fd5b6114948686612b38565b50505050505050565b6001600160a01b03821660009081526004602052604081205482106114c157600080fd5b6001600160a01b03831660009081526004602052604090208054839081106114e557fe5b906000526020600020015490505b92915050565b600c54600160a01b900460ff1681565b6127205460ff1681565b6127235460ff161561152457600080fd5b612723805460ff191660011790553360008181526127266020526040808220805490839055905190929183156108fc02918491818181858888f19350505050158015611574573d6000803e3d6000fd5b5050612723805460ff19169055565b61159e83838360405180602001604052806000815250612bb3565b505050565b60006115bc600a54612710612e7890919063ffffffff16565b905090565b600061271082106115d157600080fd5b5060010190565b6008805460408051602060026001851615610100026000190190941693909304601f8101849004840282018401909252818152929183018282801561165e5780601f106116335761010080835404028352916020019161165e565b820191906000526020600020905b81548152906001019060200180831161164157829003601f168201915b505050505081565b600b546001600160a01b031633146116b6576040805162461bcd60e51b815260206004820152600e60248201526d27b7363c903232b83637bcb2b91760911b604482015290519081900360640190fd5b61272054610100900460ff1615611707576040805162461bcd60e51b815260206004820152601060248201526f21b7b73a3930b1ba1039b2b0b632b21760811b604482015290519081900360640190fd5b612720805460ff1916911515919091179055565b6000818152600160205260408120546001600160a01b031661173c57600080fd5b506000908152600160205260409020546001600160a01b031690565b600b546001600160a01b031633146117a8576040805162461bcd60e51b815260206004820152600e60248201526d27b7363c903232b83637bcb2b91760911b604482015290519081900360640190fd5b612720805461ff001916610100179055565b61272560205260009081526040902080546001820154600283015460039093015460ff9092169290916001600160a01b039091169084565b60006001600160a01b03821661180757600080fd5b6114f382612e8d565b6127235460ff161561182157600080fd5b612723805460ff191660011790556127205460ff1615611878576040805162461bcd60e51b815260206004820152600d60248201526c13585c9ad95d0814185d5cd959609a1b604482015290519081900360640190fd5b61271081106118c5576040805162461bcd60e51b815260206004820152601460248201527370756e6b206e756d6265722069732077726f6e6760601b604482015290519081900360640190fd5b60008181526127246020908152604091829020825160a081018452815460ff16151580825260018301549382019390935260028201546001600160a01b0390811694820194909452600382015460608201526004909101549092166080830152611976576040805162461bcd60e51b815260206004820152601a60248201527f70756e6b206e6f742061637475616c6c7920666f722073616c65000000000000604482015290519081900360640190fd5b60808101516001600160a01b0316158061199c575060808101516001600160a01b031633145b6119d75760405162461bcd60e51b81526004018080602001828103825260298152602001806134766029913960400191505060405180910390fd5b8060600151341015611a30576040805162461bcd60e51b815260206004820152601960248201527f4469646e27742073656e6420656e6f75676820616d6f756e7400000000000000604482015290519081900360640190fd5b80604001516001600160a01b0316611a478361171b565b6001600160a01b031614611aa2576040805162461bcd60e51b815260206004820152601e60248201527f53656c6c6572206e6f206c6f6e676572206f776e6572206f662070756e6b0000604482015290519081900360640190fd5b600081604001519050611ac681338560405180602001604052806000815250612927565b611acf83612870565b6001600160a01b038116600081815261272660209081526040918290208054349081019091558251908152915133939287927f58e5d5a525e3b40bc15abaa38b5882678db1ee68befd2f60bafe3a7fd06db9e392918290030190a4600083815261272560209081526040918290208251608081018452815460ff161515815260018201549281019290925260028101546001600160a01b031692820183905260030154606082015290331415611c0a5760608181015133600090815261272660209081526040808320805490940190935582516080810184528281528082018981528185018481529582018481528a8552612725909352939092209151825460ff19169015151782559151600182015591516002830180546001600160a01b0319166001600160a01b03909216919091179055516003909101555b5050612723805460ff191690555050565b60078054604080516020601f6002600019610100600188161502019095169490940493840181900481028201810190925282815260609390929091830182828015610a9c5780601f10610a7157610100808354040283529160200191610a9c565b6127235460ff1615611c8d57600080fd5b612723805460ff191660011790556127108110611ce8576040805162461bcd60e51b815260206004820152601460248201527370756e6b206e756d6265722069732077726f6e6760601b604482015290519081900360640190fd5b33611cf28261171b565b6001600160a01b03161415611d3d576040805162461bcd60e51b815260206004820152600c60248201526b3bb937b7339030b1ba34b7b760a11b604482015290519081900360640190fd5b600081815261272560205260409020600201546001600160a01b03163314611dac576040805162461bcd60e51b815260206004820152601860248201527f4f6e6c79206269646465722063616e2077697468647261770000000000000000604482015290519081900360640190fd5b600081815261272560209081526040918290208251608081018452815460ff161515815260018201548184015260028201546001600160a01b03168185015260039091015460608201819052835190815292519092339285927f6f30e1ee4d81dcc7a8a478577f65d2ed2edb120565960ac45fe7c50551c879329281900390910190a360608181015160408051608081018252600080825260208083018881528385018381529684018381528984526127259092528483209351845460ff191690151517845551600184015594516002830180546001600160a01b0319166001600160a01b03909216919091179055935160039091015551909133916108fc84150291849190818181858888f19350505050158015611c0a573d6000803e3d6000fd5b6127226020526000908152604090205460ff1681565b6127235460ff1615611ef657600080fd5b612723805460ff19166001179055600c54600160a01b900460ff16611f56576040805162461bcd60e51b815260206004820152601160248201527029b0b632903737ba1039ba30b93a32b21760791b604482015290519081900360640190fd5b6127205460ff1615611f6757600080fd5b60008111611fbc576040805162461bcd60e51b815260206004820152601860248201527f6e756d6265724f664e6674732063616e6e6f7420626520300000000000000000604482015290519081900360640190fd5b6014811115611ffc5760405162461bcd60e51b815260040180806020018281038252602981526020018061349f6029913960400191505060405180910390fd5b6127106120118261200b610fb2565b90612ea8565b111561205a576040805162461bcd60e51b8152602060048201526013602482015272115e18d959591cc81513d2d15397d312535255606a1b604482015290519081900360640190fd5b600d5434906120699083612eb8565b146120bb576040805162461bcd60e51b815260206004820152601e60248201527f784461692076616c75652073656e74206973206e6f7420636f72726563740000604482015290519081900360640190fd5b600c546040516001600160a01b03909116903480156108fc02916000818181858888f193505050501580156120f4573d6000803e3d6000fd5b5060005b8181101561157457600a8054600101905561211233612ee0565b506001016120f8565b3360008181526003602090815260408083206001600160a01b03871680855290835292819020805460ff1916861515908117909155815190815290519293927f17307eab39ab6107e8899845ad3d59bd9653f200f220920489ca2b5937696c31929181900390910190a35050565b6127216020526000908152604090205481565b61272054610100900460ff1681565b600b546001600160a01b031633146121fb576040805162461bcd60e51b815260206004820152600e60248201526d27b7363c903232b83637bcb2b91760911b604482015290519081900360640190fd5b600c54600160a01b900460ff161561221257600080fd5b42600e55600c805460ff60a01b1916600160a01b1790556040517f771cfe172460b7d64cc46cca57a1e1f40f52b47cf1d16fe30c78a2935b3dd58090600090a1565b61229685858585858080601f016020809104026020016040519081016040528093929190818152602001838380828437600092019190915250612bb392505050565b5050505050565b6127235460ff16156122ae57600080fd5b612723805460ff1916600117905582612710811061230a576040805162461bcd60e51b815260206004820152601460248201527370756e6b206e756d6265722069732077726f6e6760601b604482015290519081900360640190fd5b336123148261171b565b6001600160a01b031614612362576040805162461bcd60e51b815260206004820152601060248201526f24b731b7b93932b1ba1037bbb732b91760811b604482015290519081900360640190fd5b6127205460ff16156123ab576040805162461bcd60e51b815260206004820152600d60248201526c13585c9ad95d0814185d5cd959609a1b604482015290519081900360640190fd5b6040805160a0810182526001808252602080830188815233848601908152606085018981526001600160a01b038981166080880181815260008e815261272488528a90209851895460ff191690151517895594519688019690965591516002870180546001600160a01b03199081169285169290921790559051600387015591516004909501805490921694169390931790925582518681529251909287927f3c7b682d5da98001a9b8cbda6c647d2c63d698a4184fd1d55e2ce7b66f5d21eb92918290030190a35050612723805460ff191690555050565b6127235460ff161561249557600080fd5b612723805460ff191660011790558161271081106124f1576040805162461bcd60e51b815260206004820152601460248201527370756e6b206e756d6265722069732077726f6e6760601b604482015290519081900360640190fd5b336124fb8261171b565b6001600160a01b031614612549576040805162461bcd60e51b815260206004820152601060248201526f24b731b7b93932b1ba1037bbb732b91760811b604482015290519081900360640190fd5b6127205460ff1615612592576040805162461bcd60e51b815260206004820152600d60248201526c13585c9ad95d0814185d5cd959609a1b604482015290519081900360640190fd5b6040805160a0810182526001808252602080830187815233848601908152606085018881526000608087018181528b825261272486528882209751885460ff191690151517885593519587019590955590516002860180546001600160a01b03199081166001600160a01b039384161790915591516003870155915160049095018054909116949091169390931790925582518581529251909286927f3c7b682d5da98001a9b8cbda6c647d2c63d698a4184fd1d55e2ce7b66f5d21eb92918290030190a35050612723805460ff1916905550565b60008181526001602052604090205460609082906001600160a01b03166126c6576040805162461bcd60e51b815260206004820152600e60248201526d24b73b30b634b2103a37b5b2b71760911b604482015290519081900360640190fd5b6126cf83613015565b60405160200180807f68747470733a2f2f7864616970756e6b732e636f6d2f6170692f70756e6b2f00815250601f0182805190602001908083835b602083106127295780518252601f19909201916020918201910161270a565b6001836020036101000a038019825116818451168082178552505050505050905001915050604051602081830303815290604052915050919050565b6001600160a01b03918216600090815260036020908152604080832093909416825291909152205460ff1690565b6127266020526000908152604090205481565b6127235460ff16156127b757600080fd5b612723805460ff19166001179055806127108110612813576040805162461bcd60e51b815260206004820152601460248201527370756e6b206e756d6265722069732077726f6e6760601b604482015290519081900360640190fd5b3361281d8261171b565b6001600160a01b03161461286b576040805162461bcd60e51b815260206004820152601060248201526f24b731b7b93932b1ba1037bbb732b91760811b604482015290519081900360640190fd5b611574825b6040805160a081018252600080825260208083018581523384860190815260608501848152608086018581528886526127249094528685209551865460ff191690151517865591516001860155516002850180546001600160a01b03199081166001600160a01b0393841617909155915160038601559151600490940180549091169390911692909217909155905182917fb0e0a660b4e50f26f0b7ce75c24655fc76cc66e3334a54ff410277229fa10bd491a250565b60008281526001602052604090205482906001600160a01b0316612983576040805162461bcd60e51b815260206004820152600e60248201526d24b73b30b634b2103a37b5b2b71760911b604482015290519081900360640190fd5b6000838152600160205260409020546001600160a01b0390811690861681146129e6576040805162461bcd60e51b815260206004820152601060248201526f24b731b7b93932b1ba1037bbb732b91760811b604482015290519081900360640190fd5b6001600160a01b0385166129f957600080fd5b612a038585612b38565b612a0c856130f0565b15612b30576000856001600160a01b031663150b7a02338988886040518563ffffffff1660e01b815260040180856001600160a01b03168152602001846001600160a01b0316815260200183815260200180602001828103825283818151815260200191508051906020019080838360005b83811015612a96578181015183820152602001612a7e565b50505050905090810190601f168015612ac35780820380516001836020036101000a031916815260200191505b5095505050505050602060405180830381600087803b158015612ae557600080fd5b505af1158015612af9573d6000803e3d6000fd5b505050506040513d6020811015612b0f57600080fd5b505190506001600160e01b03198116630a85bd0160e11b1461149457600080fd5b505050505050565b6000818152600160205260409020546001600160a01b0316612b59826130f6565b612b638183613133565b612b6d83836132a4565b81836001600160a01b0316826001600160a01b03167fddf252ad1be2c89b69c2b068fc378daa952ba7f163c4a11628f55a4df523b3ef60405160405180910390a4505050565b60008281526001602052604090205482906001600160a01b031633811480612bf157506000828152600260205260409020546001600160a01b031633145b80612c1f57506001600160a01b038116600090815260036020908152604080832033845290915290205460ff165b612c63576040805162461bcd60e51b815260206004820152601060248201526f21b0b73737ba103a3930b739b332b91760811b604482015290519081900360640190fd5b60008481526001602052604090205484906001600160a01b0316612cbf576040805162461bcd60e51b815260206004820152600e60248201526d24b73b30b634b2103a37b5b2b71760911b604482015290519081900360640190fd5b6000858152600160205260409020546001600160a01b039081169088168114612d22576040805162461bcd60e51b815260206004820152601060248201526f24b731b7b93932b1ba1037bbb732b91760811b604482015290519081900360640190fd5b6001600160a01b038716612d3557600080fd5b612d3f8787612b38565b612d48876130f0565b15612e6e576000876001600160a01b031663150b7a02338b8a8a6040518563ffffffff1660e01b815260040180856001600160a01b03168152602001846001600160a01b0316815260200183815260200180602001828103825283818151815260200191508051906020019080838360005b83811015612dd2578181015183820152602001612dba565b50505050905090810190601f168015612dff5780820380516001836020036101000a031916815260200191505b5095505050505050602060405180830381600087803b158015612e2157600080fd5b505af1158015612e35573d6000803e3d6000fd5b505050506040513d6020811015612e4b57600080fd5b505190506001600160e01b03198116630a85bd0160e11b14612e6c57600080fd5b505b5050505050505050565b600082821115612e8757600080fd5b50900390565b6001600160a01b031660009081526004602052604090205490565b818101828110156114f357600080fd5b600082612ec7575060006114f3565b5081810281838281612ed557fe5b04146114f357600080fd5b60006001600160a01b038216612f33576040805162461bcd60e51b815260206004820152601360248201527221b0b73737ba1036b4b73a103a3790183c181760691b604482015290519081900360640190fd5b61271060095410612f82576040805162461bcd60e51b81526020600482015260146024820152732a37b5b2b7103634b6b4ba103932b0b1b432b21760611b604482015290519081900360640190fd5b6000612f8c613379565b6009805460010190559050612fa183826132a4565b6040516001600160a01b0384169082907ff3cea5493d790af0133817606f7350a91d7f154ea52eaa79d179d4d231e5010290600090a360405181906001600160a01b038516906000907fddf252ad1be2c89b69c2b068fc378daa952ba7f163c4a11628f55a4df523b3ef908290a492915050565b60608161303a57506040805180820190915260018152600360fc1b6020820152610a05565b8160005b811561305257600101600a8204915061303e565b60008167ffffffffffffffff8111801561306b57600080fd5b506040519080825280601f01601f191660200182016040528015613096576020820181803683370190505b50859350905060001982015b83156130e757600a840660300160f81b828280600190039350815181106130c557fe5b60200101906001600160f81b031916908160001a905350600a840493506130a2565b50949350505050565b3b151590565b6000818152600260205260409020546001600160a01b03161561313057600081815260026020526040902080546001600160a01b03191690555b50565b6000818152600160205260409020546001600160a01b03838116911614613194576040805162461bcd60e51b815260206004820152601060248201526f24b731b7b93932b1ba1037bbb732b91760811b604482015290519081900360640190fd5b600081815260016020818152604080842080546001600160a01b031916905560058252808420546001600160a01b038716855260049092528320549092916131dc9190612e78565b9050818114613267576001600160a01b038416600090815260046020526040812080548390811061320957fe5b906000526020600020015490508060046000876001600160a01b03166001600160a01b03168152602001908152602001600020848154811061324757fe5b600091825260208083209091019290925591825260059052604090208290555b6001600160a01b038416600090815260046020526040902080548061328857fe5b6001900381819060005260206000200160009055905550505050565b6000818152600160205260409020546001600160a01b03161561330e576040805162461bcd60e51b815260206004820152601a60248201527f43616e6e6f74206164642c20616c7265616479206f776e65642e000000000000604482015290519081900360640190fd5b600081815260016020818152604080842080546001600160a01b0319166001600160a01b0388169081179091558085526004835290842080548085018255818652928520909201859055909252905461336691612e78565b6000918252600560205260409091205550565b600954600f54604080516020808201939093523360601b81830152446054820152426074808301919091528251808303909101815260949091019091528051910120600091612710039082908290816133ce57fe5b069050600060108261271081106133e157fe5b0154156133ff5760108261271081106133f657fe5b01549050613402565b50805b601060018403612710811061341357fe5b01546134325760018303601083612710811061342b57fe5b0155613456565b601060018403612710811061344357fe5b0154601083612710811061345357fe5b01555b600f8054600190810190915561346d908290612ea8565b93505050509056fe70756e6b206e6f7420737570706f73656420746f20626520736f6c6420746f20746869732075736572596f752063616e206e6f7420627579206d6f7265207468616e203230204e465473206174206f6e6365796f752063616e206e6f7420626964206c6f776572207468616e206c61737420626964a26469706673582212206393107d46ba8bd85ea360d3056ae192ab38ffcb4747033592cb21f1bb2e27b064736f6c63430007060033",
  "immutableReferences": {},
  "source": "//                           ,@@@@@@@@             @@@@@@@@\n//                           ,@@@@@@@@             @@@@@@@@\n//                       @@@@@@@@@@@@@@@@@@@@@@@@@@@@@@@@@@@@@@,\n//                       @@@@@@@@@@@@@@@@@@@@@@@@@@@@@@@@@@@@@@,\n//                       @@@@@@@@@@@@@@@@@@@@@@@@@@@@@@@@@@@@@@,\n//                       @@@@@@@@@@@@@@@@@@@@@@@@@@@@@@@@@@@@@@,\n//                       @@@@@@@@@@@@@@@@@@@@@@@@@@@@@@@@@@@@@@,\n//  @@@@@            ###############################################            @@@@\n//  @@@@@            ###############################################            @@@@\n//  @@@@@@@@@@@@@@@@@@@@@@@@@@@@@@@@@@@@@@@@@@@@@@@@@@@@@@@@@@@@@@@@@@@@@@@@@@@@@@@@\n//  @@@@@@@@@@@@@@@@@@@@@@@@@@@@@@@@@@@@@@@@@@@@@@@@@@@@@@@@@@@@@@@@@@@@@@@@@@@@@@@@\n//       @@@@@@@@@@@@@@@@@@@@@@@@@@@@@@@@@@@@@@@@@@@@@@@@@@@@@@@@@@@@@@@@@@@@@@@\n//                       /%%%%%%%%%%%%%%%%%%%%%%%%%%%%%%%%%%%%%\n//                       /%%%%%%%%%%%%%%%%%%%%%%%%%%%%%%%%%%%%%\n//\n//                   .........                 ........\n//                   %%%%%%%%%                *%%%%%%%%\n//                   %%%%%%%%%%%%%        %%%%%%%%%%%%%%%%%\n//                   %%%%%%%%%%%%%        %%%%%%%%%%%%%%%%%\n//                       /%%%%%%%%%%%%%%%%%%%%%%%%%%%%%%%%%%%%%\n//                       /%%%%%%%%%%%%%%%%%%%%%%%%%%%%%%%%%%%%%\n//                       *((((%%%%%%%%%%%%%%%%/        %%%%%%%%\n//                       *((((((((%%%%%%%%%%%%%%%%%%%%%%%%%((((\n//                       *((((((((%%%%%%%%%%%%%%%%%%%%%%%%%((((\n//                       *(((((((((((((((((((((((((((((((((((((\n//                       *(((((((((((((((((((((((((((((((((((((\n//                       *((((((((((((((((             ((((((((\n//                       /%%%%(((((((((((((((((((((((((((((((((\n//                       /%%%%(((((((((((((((((((((((((((((((((\n//                       /%%%%%%%%(((((((((((((((((((((((((\n//                       /%%%%%%%%(((((((((((((((((((((((((\n//                       /%%%%%%%%%%%%\n//                       /%%%%%%%%%%%%\n//                       /%%%%%%%%%%%%\n//                       /%%%%%%%%%%%%\n\n//                                  \n//                            \n//                       \n//                        \n//                 \n//                                 \n//                                        \n//                                                   \n//                                                                  \n//             \n\npragma solidity 0.7.6;\n\n/**\n * SPDX-License-Identifier: GPL-3.0-or-later\n * Muevo\n * Copyright (C) 2021 xDaiPunks\n *\n * This program is free software: you can redistribute it and/or modify\n * it under the terms of the GNU General Public License as published by\n * the Free Software Foundation, either version 3 of the License, or\n * (at your option) any later version.\n *\n * This program is distributed in the hope that it will be useful,\n * but WITHOUT ANY WARRANTY; without even the implied warranty of\n * MERCHANTABILITY or FITNESS FOR A PARTICULAR PURPOSE.  See the\n * GNU General Public License for more details.\n *\n * You should have received a copy of the GNU General Public License\n * along with this program.  If not, see <http://www.gnu.org/licenses/>.\n */\n\ninterface IERC165 {\n    function supportsInterface(bytes4 interfaceId) external view returns (bool);\n}\n\ninterface IERC721 is IERC165 {\n    event Transfer(\n        address indexed from,\n        address indexed to,\n        uint256 indexed tokenId\n    );\n    event Approval(\n        address indexed owner,\n        address indexed approved,\n        uint256 indexed tokenId\n    );\n    event ApprovalForAll(\n        address indexed owner,\n        address indexed operator,\n        bool approved\n    );\n\n    function balanceOf(address owner) external view returns (uint256 balance);\n\n    function ownerOf(uint256 tokenId) external view returns (address owner);\n\n    function safeTransferFrom(\n        address from,\n        address to,\n        uint256 tokenId\n    ) external;\n\n    function transferFrom(\n        address from,\n        address to,\n        uint256 tokenId\n    ) external;\n\n    function approve(address to, uint256 tokenId) external;\n\n    function getApproved(uint256 tokenId)\n        external\n        view\n        returns (address operator);\n\n    function setApprovalForAll(address operator, bool _approved) external;\n\n    function isApprovedForAll(address owner, address operator)\n        external\n        view\n        returns (bool);\n\n    function safeTransferFrom(\n        address from,\n        address to,\n        uint256 tokenId,\n        bytes calldata data\n    ) external;\n}\n\ninterface ERC721TokenReceiver {\n    function onERC721Received(\n        address _operator,\n        address _from,\n        uint256 _tokenId,\n        bytes calldata _data\n    ) external returns (bytes4);\n}\n\nlibrary SafeMath {\n    /**\n     * @dev Multiplies two numbers, throws on overflow.\n     */\n    function mul(uint256 a, uint256 b) internal pure returns (uint256 c) {\n        if (a == 0) {\n            return 0;\n        }\n        c = a * b;\n        require(c / a == b);\n        return c;\n    }\n\n    /**\n     * @dev Integer division of two numbers, truncating the quotient.\n     */\n    function div(uint256 a, uint256 b) internal pure returns (uint256) {\n        // assert(b > 0); // Solidity automatically throws when dividing by 0\n        // uint256 c = a / b;\n        // assert(a == b * c + a % b); // There is no case in which this doesn't hold\n        return a / b;\n    }\n\n    /**\n     * @dev Subtracts two numbers, throws on overflow (i.e. if subtrahend is greater than minuend).\n     */\n    function sub(uint256 a, uint256 b) internal pure returns (uint256) {\n        require(b <= a);\n        return a - b;\n    }\n\n    /**\n     * @dev Adds two numbers, throws on overflow.\n     */\n    function add(uint256 a, uint256 b) internal pure returns (uint256 c) {\n        c = a + b;\n        require(c >= a);\n        return c;\n    }\n}\n\ncontract Punks is IERC721 {\n    using SafeMath for uint256;\n\n    event Mint(uint256 indexed index, address indexed minter);\n    event PunkOffered(\n        uint256 indexed punkIndex,\n        uint256 minValue,\n        address indexed toAddress\n    );\n    event PunkBidEntered(\n        uint256 indexed punkIndex,\n        uint256 value,\n        address indexed fromAddress\n    );\n    event PunkBidWithdrawn(\n        uint256 indexed punkIndex,\n        uint256 value,\n        address indexed fromAddress\n    );\n    event PunkBought(\n        uint256 indexed punkIndex,\n        uint256 value,\n        address indexed fromAddress,\n        address indexed toAddress\n    );\n    event PunkNoLongerForSale(uint256 indexed punkIndex);\n\n    /**\n     * Event emitted when the public sale begins.\n     */\n    event SaleBegins();\n\n    bytes4 internal constant MAGIC_ON_ERC721_RECEIVED = 0x150b7a02;\n\n    uint256 public constant TOKEN_LIMIT = 10000;\n\n    mapping(bytes4 => bool) internal supportedInterfaces;\n\n    mapping(uint256 => address) internal idToOwner;\n\n    mapping(uint256 => address) internal idToApproval;\n\n    mapping(address => mapping(address => bool)) internal ownerToOperators;\n\n    mapping(address => uint256[]) internal ownerToIds;\n\n    mapping(uint256 => uint256) internal idToOwnerIndex;\n\n    string internal nftName = \"xDaiPunks\";\n    string internal nftSymbol = \"xDaiPunks\";\n\n    // You can use this hash to verify the image file containing all the punks\n    string public imageHash;\n\n    uint256 internal numTokens = 0;\n    uint256 internal numSales = 0;\n\n    address payable internal deployer;\n    address payable internal developer;\n\n    bool public publicSale = false;\n    uint256 private mintPrice = 12e18;\n    uint256 public saleStartTime;\n\n    //// Random index assignment\n    uint256 internal nonce = 0;\n    uint256[TOKEN_LIMIT] internal indices;\n\n    //// Market\n    bool public marketPaused;\n    bool public contractSealed;\n    mapping(address => uint256) public xDaiBalance;\n    mapping(bytes32 => bool) public cancelledOffers;\n\n    modifier onlyDeployer() {\n        require(msg.sender == deployer, \"Only deployer.\");\n        _;\n    }\n\n    bool private reentrancyLock = false;\n\n    /* Prevent a contract function from being reentrant-called. */\n    modifier reentrancyGuard() {\n        if (reentrancyLock) {\n            revert();\n        }\n        reentrancyLock = true;\n        _;\n        reentrancyLock = false;\n    }\n\n    modifier canOperate(uint256 _tokenId) {\n        address tokenOwner = idToOwner[_tokenId];\n        require(\n            tokenOwner == msg.sender ||\n                ownerToOperators[tokenOwner][msg.sender],\n            \"Cannot operate.\"\n        );\n        _;\n    }\n\n    modifier canTransfer(uint256 _tokenId) {\n        address tokenOwner = idToOwner[_tokenId];\n        require(\n            tokenOwner == msg.sender ||\n                idToApproval[_tokenId] == msg.sender ||\n                ownerToOperators[tokenOwner][msg.sender],\n            \"Cannot transfer.\"\n        );\n        _;\n    }\n\n    modifier validNFToken(uint256 _tokenId) {\n        require(idToOwner[_tokenId] != address(0), \"Invalid token.\");\n        _;\n    }\n\n    constructor(address payable _developer, string memory _imageHash) {\n        supportedInterfaces[0x01ffc9a7] = true; // ERC165\n        supportedInterfaces[0x80ac58cd] = true; // ERC721\n        supportedInterfaces[0x780e9d63] = true; // ERC721 Enumerable\n        supportedInterfaces[0x5b5e139f] = true; // ERC721 Metadata\n        deployer = msg.sender;\n        developer = _developer;\n        imageHash = _imageHash;\n    }\n\n    function startSale() external onlyDeployer {\n        require(!publicSale);\n        saleStartTime = block.timestamp;\n        publicSale = true;\n        emit SaleBegins();\n    }\n\n    function pauseMarket(bool _paused) external onlyDeployer {\n        require(!contractSealed, \"Contract sealed.\");\n        marketPaused = _paused;\n    }\n\n    function sealContract() external onlyDeployer {\n        contractSealed = true;\n    }\n\n    //////////////////////////\n    //// ERC 721 and 165  ////\n    //////////////////////////\n\n    function isContract(address _addr)\n        internal\n        view\n        returns (bool addressCheck)\n    {\n        uint256 size;\n        assembly {\n            size := extcodesize(_addr)\n        } // solhint-disable-line\n        addressCheck = size > 0;\n    }\n\n    function supportsInterface(bytes4 _interfaceID)\n        external\n        view\n        override\n        returns (bool)\n    {\n        return supportedInterfaces[_interfaceID];\n    }\n\n    function safeTransferFrom(\n        address _from,\n        address _to,\n        uint256 _tokenId,\n        bytes calldata _data\n    ) external override {\n        _safeTransferFrom(_from, _to, _tokenId, _data);\n    }\n\n    function safeTransferFrom(\n        address _from,\n        address _to,\n        uint256 _tokenId\n    ) external override {\n        _safeTransferFrom(_from, _to, _tokenId, \"\");\n    }\n\n    function transferFrom(\n        address _from,\n        address _to,\n        uint256 _tokenId\n    ) external override canTransfer(_tokenId) validNFToken(_tokenId) {\n        address tokenOwner = idToOwner[_tokenId];\n        require(tokenOwner == _from, \"Wrong from address.\");\n        require(_to != address(0), \"Cannot send to 0x0.\");\n        _transfer(_to, _tokenId);\n    }\n\n    function approve(address _approved, uint256 _tokenId)\n        external\n        override\n        canOperate(_tokenId)\n        validNFToken(_tokenId)\n    {\n        address tokenOwner = idToOwner[_tokenId];\n        require(_approved != tokenOwner);\n        idToApproval[_tokenId] = _approved;\n        emit Approval(tokenOwner, _approved, _tokenId);\n    }\n\n    function setApprovalForAll(address _operator, bool _approved)\n        external\n        override\n    {\n        ownerToOperators[msg.sender][_operator] = _approved;\n        emit ApprovalForAll(msg.sender, _operator, _approved);\n    }\n\n    function balanceOf(address _owner)\n        external\n        view\n        override\n        returns (uint256)\n    {\n        require(_owner != address(0));\n        return _getOwnerNFTCount(_owner);\n    }\n\n    function ownerOf(uint256 _tokenId)\n        public\n        view\n        override\n        returns (address _owner)\n    {\n        require(idToOwner[_tokenId] != address(0));\n        _owner = idToOwner[_tokenId];\n    }\n\n    function getApproved(uint256 _tokenId)\n        external\n        view\n        override\n        validNFToken(_tokenId)\n        returns (address)\n    {\n        return idToApproval[_tokenId];\n    }\n\n    function isApprovedForAll(address _owner, address _operator)\n        external\n        view\n        override\n        returns (bool)\n    {\n        return ownerToOperators[_owner][_operator];\n    }\n\n    function _transfer(address _to, uint256 _tokenId) internal {\n        address from = idToOwner[_tokenId];\n        _clearApproval(_tokenId);\n\n        _removeNFToken(from, _tokenId);\n        _addNFToken(_to, _tokenId);\n\n        emit Transfer(from, _to, _tokenId);\n    }\n\n    function randomIndex() internal returns (uint256) {\n        uint256 totalSize = TOKEN_LIMIT - numTokens;\n        uint256 index = uint256(\n            keccak256(\n                abi.encodePacked(\n                    nonce,\n                    msg.sender,\n                    block.difficulty,\n                    block.timestamp\n                )\n            )\n        ) % totalSize;\n        uint256 value = 0;\n        if (indices[index] != 0) {\n            value = indices[index];\n        } else {\n            value = index;\n        }\n\n        // Move last value to selected position\n        if (indices[totalSize - 1] == 0) {\n            // Array position not initialized, so use position\n            indices[index] = totalSize - 1;\n        } else {\n            // Array position holds a value so use that\n            indices[index] = indices[totalSize - 1];\n        }\n        nonce++;\n        // Don't allow a zero index, start counting at 1\n        return value.add(1);\n    }\n\n    function mintsRemaining() external view returns (uint256) {\n        return TOKEN_LIMIT.sub(numSales);\n    }\n\n    /**\n     * Public sale minting.\n     */\n    function mint(uint256 numberOfNfts) external payable reentrancyGuard {\n        require(publicSale, \"Sale not started.\");\n        require(!marketPaused);\n        require(numberOfNfts > 0, \"numberOfNfts cannot be 0\");\n        require(\n            numberOfNfts <= 20,\n            \"You can not buy more than 20 NFTs at once\"\n        );\n        require(\n            totalSupply().add(numberOfNfts) <= TOKEN_LIMIT,\n            \"Exceeds TOKEN_LIMIT\"\n        );\n        require(\n            mintPrice.mul(numberOfNfts) == msg.value,\n            \"xDai value sent is not correct\"\n        );\n\n        developer.transfer(msg.value);\n\n        for (uint256 i = 0; i < numberOfNfts; i++) {\n            numSales++;\n            _mint(msg.sender);\n        }\n    }\n\n    function _mint(address _to) internal returns (uint256) {\n        require(_to != address(0), \"Cannot mint to 0x0.\");\n        require(numTokens < TOKEN_LIMIT, \"Token limit reached.\");\n        uint256 id = randomIndex();\n\n        numTokens = numTokens + 1;\n        _addNFToken(_to, id);\n\n        emit Mint(id, _to);\n        emit Transfer(address(0), _to, id);\n        return id;\n    }\n\n    function _addNFToken(address _to, uint256 _tokenId) internal {\n        require(\n            idToOwner[_tokenId] == address(0),\n            \"Cannot add, already owned.\"\n        );\n        idToOwner[_tokenId] = _to;\n\n        ownerToIds[_to].push(_tokenId);\n        idToOwnerIndex[_tokenId] = ownerToIds[_to].length.sub(1);\n    }\n\n    function _removeNFToken(address _from, uint256 _tokenId) internal {\n        require(idToOwner[_tokenId] == _from, \"Incorrect owner.\");\n        delete idToOwner[_tokenId];\n\n        uint256 tokenToRemoveIndex = idToOwnerIndex[_tokenId];\n        uint256 lastTokenIndex = ownerToIds[_from].length.sub(1);\n\n        if (lastTokenIndex != tokenToRemoveIndex) {\n            uint256 lastToken = ownerToIds[_from][lastTokenIndex];\n            ownerToIds[_from][tokenToRemoveIndex] = lastToken;\n            idToOwnerIndex[lastToken] = tokenToRemoveIndex;\n        }\n\n        ownerToIds[_from].pop();\n    }\n\n    function _getOwnerNFTCount(address _owner) internal view returns (uint256) {\n        return ownerToIds[_owner].length;\n    }\n\n    function _safeTransferFrom(\n        address _from,\n        address _to,\n        uint256 _tokenId,\n        bytes memory _data\n    ) private canTransfer(_tokenId) validNFToken(_tokenId) {\n        address tokenOwner = idToOwner[_tokenId];\n        require(tokenOwner == _from, \"Incorrect owner.\");\n        require(_to != address(0));\n\n        _transfer(_to, _tokenId);\n\n        if (isContract(_to)) {\n            bytes4 retval = ERC721TokenReceiver(_to).onERC721Received(\n                msg.sender,\n                _from,\n                _tokenId,\n                _data\n            );\n            require(retval == MAGIC_ON_ERC721_RECEIVED);\n        }\n    }\n\n    function _safeTransfer(\n        address _from,\n        address _to,\n        uint256 _tokenId,\n        bytes memory _data\n    ) private validNFToken(_tokenId) {\n        address tokenOwner = idToOwner[_tokenId];\n        require(tokenOwner == _from, \"Incorrect owner.\");\n        require(_to != address(0));\n\n        _transfer(_to, _tokenId);\n\n        if (isContract(_to)) {\n            bytes4 retval = ERC721TokenReceiver(_to).onERC721Received(\n                msg.sender,\n                _from,\n                _tokenId,\n                _data\n            );\n            require(retval == MAGIC_ON_ERC721_RECEIVED);\n        }\n    }\n\n    function _clearApproval(uint256 _tokenId) private {\n        if (idToApproval[_tokenId] != address(0)) {\n            delete idToApproval[_tokenId];\n        }\n    }\n\n    //// Enumerable\n\n    function totalSupply() public view returns (uint256) {\n        return numTokens;\n    }\n\n    function tokenByIndex(uint256 index) public pure returns (uint256) {\n        require(index >= 0 && index < TOKEN_LIMIT);\n        return index + 1;\n    }\n\n    function tokenOfOwnerByIndex(address _owner, uint256 _index)\n        external\n        view\n        returns (uint256)\n    {\n        require(_index < ownerToIds[_owner].length);\n        return ownerToIds[_owner][_index];\n    }\n\n    //// Metadata\n\n    /**\n     * @dev Converts a `uint256` to its ASCII `string` representation.\n     */\n    function toString(uint256 value) internal pure returns (string memory) {\n        if (value == 0) {\n            return \"0\";\n        }\n        uint256 temp = value;\n        uint256 digits;\n        while (temp != 0) {\n            digits++;\n            temp /= 10;\n        }\n        bytes memory buffer = new bytes(digits);\n        uint256 index = digits - 1;\n        temp = value;\n        while (temp != 0) {\n            buffer[index--] = bytes1(uint8(48 + (temp % 10)));\n            temp /= 10;\n        }\n        return string(buffer);\n    }\n\n    /**\n     * @dev Returns a descriptive name for a collection of NFTokens.\n     * @return _name Representing name.\n     */\n    function name() external view returns (string memory _name) {\n        _name = nftName;\n    }\n\n    /**\n     * @dev Returns an abbreviated name for NFTokens.\n     * @return _symbol Representing symbol.\n     */\n    function symbol() external view returns (string memory _symbol) {\n        _symbol = nftSymbol;\n    }\n\n    /**\n     * @dev A distinct URI (RFC 3986) for a given NFT.\n     * @param _tokenId Id for which we want uri.\n     * @return _tokenId URI of _tokenId.\n     */\n    function tokenURI(uint256 _tokenId)\n        external\n        view\n        validNFToken(_tokenId)\n        returns (string memory)\n    {\n        return\n            string(\n                abi.encodePacked(\n                    \"https://xdaipunks.com/api/punk/\",\n                    toString(_tokenId)\n                )\n            );\n    }\n\n    //// MARKET\n\n    struct Offer {\n        bool isForSale;\n        uint256 punkIndex;\n        address seller;\n        uint256 minValue; // in xDai\n        address onlySellTo; // specify to sell only to a specific person\n    }\n\n    struct Bid {\n        bool hasBid;\n        uint256 punkIndex;\n        address bidder;\n        uint256 value;\n    }\n\n    // A record of punks that are offered for sale at a specific minimum value, and perhaps to a specific person\n    mapping(uint256 => Offer) public punksOfferedForSale;\n\n    // A record of the highest punk bid\n    mapping(uint256 => Bid) public punkBids;\n\n    mapping(address => uint256) public pendingWithdrawals;\n\n    modifier onlyTokenOwner(uint256 _tokenId) {\n        require(_tokenId < 10000, \"punk number is wrong\");\n        require(ownerOf(_tokenId) == msg.sender, \"Incorrect owner.\");\n        _;\n    }\n\n    function punkNoLongerForSale(uint256 punkIndex)\n        public\n        reentrancyGuard\n        onlyTokenOwner(punkIndex)\n    {\n        _punkNoLongerForSale(punkIndex);\n    }\n\n    function _punkNoLongerForSale(uint256 punkIndex) private {\n        punksOfferedForSale[punkIndex] = Offer(\n            false,\n            punkIndex,\n            msg.sender,\n            0,\n            address(0)\n        );\n        emit PunkNoLongerForSale(punkIndex);\n    }\n\n    function offerPunkForSale(uint256 punkIndex, uint256 minSalePriceInWei)\n        public\n        reentrancyGuard\n        onlyTokenOwner(punkIndex)\n    {\n        require(marketPaused == false, \"Market Paused\");\n        punksOfferedForSale[punkIndex] = Offer(\n            true,\n            punkIndex,\n            msg.sender,\n            minSalePriceInWei,\n            address(0)\n        );\n        emit PunkOffered(punkIndex, minSalePriceInWei, address(0));\n    }\n\n    function offerPunkForSaleToAddress(\n        uint256 punkIndex,\n        uint256 minSalePriceInWei,\n        address toAddress\n    ) public reentrancyGuard onlyTokenOwner(punkIndex) {\n        require(marketPaused == false, \"Market Paused\");\n        punksOfferedForSale[punkIndex] = Offer(\n            true,\n            punkIndex,\n            msg.sender,\n            minSalePriceInWei,\n            toAddress\n        );\n        emit PunkOffered(punkIndex, minSalePriceInWei, toAddress);\n    }\n\n    function buyPunk(uint256 punkIndex) public payable reentrancyGuard {\n        require(marketPaused == false, \"Market Paused\");\n        require(punkIndex < 10000, \"punk number is wrong\");\n        Offer memory offer = punksOfferedForSale[punkIndex];\n        require(offer.isForSale, \"punk not actually for sale\");\n        require(\n            offer.onlySellTo == address(0) || offer.onlySellTo == msg.sender,\n            \"punk not supposed to be sold to this user\"\n        );\n        require(msg.value >= offer.minValue, \"Didn't send enough amount\");\n        require(\n            ownerOf(punkIndex) == offer.seller,\n            \"Seller no longer owner of punk\"\n        );\n\n        address seller = offer.seller;\n\n        _safeTransfer(seller, msg.sender, punkIndex, \"\");\n        _punkNoLongerForSale(punkIndex);\n        pendingWithdrawals[seller] += msg.value;\n        emit PunkBought(punkIndex, msg.value, seller, msg.sender);\n\n        // Check for the case where there is a bid from the new owner and refund it.\n        // Any other bid can stay in place.\n        Bid memory bid = punkBids[punkIndex];\n        if (bid.bidder == msg.sender) {\n            // Kill bid and refund value\n            pendingWithdrawals[msg.sender] += bid.value;\n\n            punkBids[punkIndex] = Bid(false, punkIndex, address(0), 0);\n        }\n    }\n\n    function withdraw() public reentrancyGuard {\n        uint256 amount = pendingWithdrawals[msg.sender];\n        // Remember to zero the pending refund before\n        // sending to prevent re-entrancy attacks\n        pendingWithdrawals[msg.sender] = 0;\n        msg.sender.transfer(amount);\n    }\n\n    function enterBidForPunk(uint256 punkIndex) public payable reentrancyGuard {\n        require(marketPaused == false, \"Market Paused\");\n        require(punkIndex < 10000, \"punk number is wrong\");\n        require(\n            ownerOf(punkIndex) != msg.sender,\n            \"you can not bid on your punk\"\n        );\n        require(msg.value > 0, \"bid can not be zero\");\n        Bid memory existing = punkBids[punkIndex];\n        require(\n            msg.value > existing.value,\n            \"you can not bid lower than last bid\"\n        );\n        if (existing.value > 0) {\n            // Refund the failing bid\n\n            pendingWithdrawals[existing.bidder] += existing.value;\n        }\n\n        punkBids[punkIndex] = Bid(true, punkIndex, msg.sender, msg.value);\n\n        emit PunkBidEntered(punkIndex, msg.value, msg.sender);\n    }\n\n    function acceptBidForPunk(uint256 punkIndex, uint256 minPrice)\n        public\n        reentrancyGuard\n        onlyTokenOwner(punkIndex)\n    {\n        require(marketPaused == false, \"Market Paused\");\n        address seller = msg.sender;\n        Bid memory bid = punkBids[punkIndex];\n        require(bid.value > 0, \"there is not any bid\");\n        require(bid.value >= minPrice, \"bid is lower than min price\");\n\n        _punkNoLongerForSale(punkIndex);\n        _safeTransfer(seller, bid.bidder, punkIndex, \"\");\n\n        uint256 amount = bid.value;\n\n        punkBids[punkIndex] = Bid(false, punkIndex, address(0), 0);\n\n        pendingWithdrawals[seller] += amount;\n        emit PunkBought(punkIndex, bid.value, seller, bid.bidder);\n    }\n\n    function withdrawBidForPunk(uint256 punkIndex) public reentrancyGuard {\n        require(punkIndex < 10000, \"punk number is wrong\");\n        require(ownerOf(punkIndex) != msg.sender, \"wrong action\");\n        require(\n            punkBids[punkIndex].bidder == msg.sender,\n            \"Only bidder can withdraw\"\n        );\n\n        Bid memory bid = punkBids[punkIndex];\n        emit PunkBidWithdrawn(punkIndex, bid.value, msg.sender);\n        uint256 amount = bid.value;\n        punkBids[punkIndex] = Bid(false, punkIndex, address(0), 0);\n        // Refund the bid money\n        msg.sender.transfer(amount);\n    }\n}\n",
  "sourcePath": "/Users/Mac/Projects/Nodejs/Punks/contract/contracts/Punks/Punks.sol",
  "compiler": {
    "name": "solc",
    "version": "0.7.6+commit.7338295f.Emscripten.clang"
  },
  "schemaVersion": "3.4.1",
  "updatedAt": "2021-10-14T09:18:35.629Z",
  "networkType": "ethereum",
  "devdoc": {
    "kind": "dev",
    "methods": {
      "name()": {
        "details": "Returns a descriptive name for a collection of NFTokens.",
        "returns": {
          "_name": "Representing name."
        }
      },
      "symbol()": {
        "details": "Returns an abbreviated name for NFTokens.",
        "returns": {
          "_symbol": "Representing symbol."
        }
      },
      "tokenURI(uint256)": {
        "details": "A distinct URI (RFC 3986) for a given NFT.",
        "params": {
          "_tokenId": "Id for which we want uri."
        },
        "returns": {
          "_0": "_tokenId URI of _tokenId."
        }
      }
    },
    "version": 1
  },
  "userdoc": {
    "events": {
      "SaleBegins()": {
        "notice": "Event emitted when the public sale begins."
      }
    },
    "kind": "user",
    "methods": {
      "mint(uint256)": {
        "notice": "Public sale minting."
      }
    },
    "version": 1
  }
}